:100000000C9434000C9446000C9446000C9446006A
:100010000C9446000C9446000C9446000C94460048
:100020000C9446000C9446000C9446000C941F015E
:100030000C9446000C9446000C9446000C94460028
:100040000C9446000C9446000C9446000C94460018
:100050000C9446000C9446000C9446000C94460008
:100060000C9425010C94460011241FBECFEFD8E05C
:10007000DEBFCDBF21E0A0E0B1E001C01D92A13004
:10008000B207E1F70E942C030C9412040C940000B8
:10009000CF93DF9300D00F92CDB7DEB78B83698308
:1000A0004A830E94B4018B81880F0E94D801811578
:1000B00059F00E94D00181E0898389810F900F90CF
:1000C0000F90DF91CF91089589810E94F6018111EF
:1000D000F0CF8A810E94F60189838111EACF0E94C4
:1000E000D001EBCFCF93DF9300D00F92CDB7DEB727
:1000F0008B8369837A830E94B40180ED0E94D801CA
:10010000811559F00E94D00181E08B838B810F9083
:100110000F900F90DF91CF9108958B810E94F6018F
:100120008111F0CF0E94B40181ED0E94D8018B8330
:100130008111E8CF0E940F028091BB00E981FA8112
:1001400080830E94D001E2CF0F931F93CF93DF9360
:10015000CDB7DEB72A970FB6F894DEBF0FBECDBF7E
:10016000182F062F49875A8719821A821B821C82F0
:100170001D821E821F8218860E94B401110F812FDA
:100180000E94D801811579F00E94D00111E0812FE1
:100190002A960FB6F894DEBF0FBECDBFDF91CF9188
:1001A0001F910F910895802F0E94F6018111ECCFCD
:1001B0000E94B401812F81600E94D8018111E4CF97
:1001C00015E00E941E02E091BB0029813A814B811B
:1001D0005C816D817E818F81982F872F762F652F8F
:1001E000542FE9832A833B835C836D837E838F83D3
:1001F0009887115031F70E940F02E091BB002981CE
:100200003A814B815C816D817E818F81982F872F10
:10021000762F652F542FE9832A833B835C836D837C
:100220007E838F83988786E0FE013196A985BA8503
:1002300001900D928A95E1F70E94D001A8CF8F938B
:1002400081E0809300018F9118958F938FB78F93E2
:100250009F9385B190E2892785B99F918F918FBF38
:100260008F91189510928000E1E8F0E01082808173
:100270008860808380818460808380E792E09093AF
:10028000890080938800EFE68081826080830895F2
:10029000CF93C82F883048F40E94B40180EE0E94AA
:1002A000D801811531F00E94D001C1E08C2FCF918F
:1002B000089581E001C0880FCA95EAF70E94F6010F
:1002C000C82F8111F0CF0E94D001F0CF259A30E2E3
:1002D00086E090E025B1232725B92FEF43EC59E0C4
:1002E000215040405040E1F700C00000019791F7D5
:1002F00086E090E025B1232725B92FEF4FE057E2A4
:10030000215040405040E1F700C00000019791F7B4
:10031000DFCF259A30E286E090E025B1232725B98A
:100320002FEF43EC59E0215040405040E1F700C02E
:100330000000019791F7EFCF8436910541F41092B8
:10034000B90088E48093B80080E090E00895C297F7
:1003500021F41092B90088E9F5CF81E090E008958A
:1003600084E08093BC00089585EA8093BC0080916E
:10037000BC0087FF0DC09091B900987F21E09031BB
:1003800009F420E081E0983009F480E082230895A8
:1003900083B7816083BF889583B78E7F83BFE7CFA4
:1003A00085E98093BC008091BC0084FDFCCF08955A
:1003B0008093BB0085E88093BC008091BC0087FFE0
:1003C0000DC09091B900987F21E0903409F420E0AD
:1003D00081E0983109F480E08223089583B7816039
:1003E00083BF889583B78E7F83BFE7CF8093BB00A1
:1003F00085E88093BC008091BC0087FF08C0909185
:10040000B900987F81E0983209F480E0089583B7BD
:10041000816083BF889583B78E7F83BFECCF85E8EB
:100420008093BC008091BC0087FD089583B78160F4
:1004300083BF889583B78E7F83BFF4CF85EC80938D
:10044000BC008091BC0087FD089583B7816083BFA5
:10045000889583B78E7F83BFF4CF82E08093C000FE
:100460001092C50080E18093C40088E08093C100B1
:1004700086E08093C20008959091C00095FFFCCF64
:100480008093C6000895CF93DF93EC01888181119A
:1004900003C0DF91CF91089521960E943C02F6CFD0
:1004A000CF93DF93CDB7DEB72A970FB6F894DEBFB0
:1004B0000FBECDBF4AE0BE016F5F7F4F0E94DD03DC
:1004C000CE0101960E9443022A960FB6F894DEBF31
:1004D0000FBECDBFDF91CF9108959091C00095FFE1
:1004E000FCCF8093C6000895CF93DF930F92CDB7D2
:1004F000DEB799830E946D0289810F90DF91CF91C1
:100500000C946D02CF93DF9300D000D000D0CDB714
:10051000DEB749835A836B837C838D839E838AEA0B
:100520000E946D0285E50E946D0289819A810E9478
:1005300074028B819C810E9474028D819E810F9038
:100540000F900F900F900F900F90DF91CF910C9420
:100550007402CF92EF92FF920F931F93CF93DF938A
:10056000CDB7DEB72C970FB6F894DEBF0FBECDBF68
:10057000462748274E254027422745274727492712
:100580004F2541274327842F8C252C960FB6F894AE
:10059000DEBF0FBECDBFDF91CF911F910F91FF90B6
:1005A000EF90CF900895CF92EF92FF920F931F9309
:1005B000CF93DF93CDB7DEB72C970FB6F894DEBF9D
:1005C0000FBECDBF49835A836B837C838D839E830B
:1005D000EF82F88609871A872B873C878AEA0E9470
:1005E0006D0285E50E946D028C2D0E946D0289814D
:1005F0009A810E9474028B819C810E9474028D8179
:100600009E810E9474028F8198850E947402898560
:100610009A850E9474028B859C850E947402EF80EB
:10062000F88409851A852B853C8549815A816B811F
:100630007C818D819E810E94A9022C960FB6F89430
:10064000DEBF0FBECDBFDF91CF911F910F91FF9005
:10065000EF90CF900C946D02CDB7DEB761970FB6D7
:10066000F894DEBF0FBECDBF789488E19CE00FB652
:10067000F894A895809360000FBE9093600084E684
:1006800090E00E949C01892B11F00E9466010E945B
:10069000B00110E0812F0E9448018111F6CF40E0A7
:1006A0006BE688E60E9448008111EFCF40E16BE1E4
:1006B00088E60E9448008111E8CF153081F040E0C3
:1006C0006BE689E60E9448008111DFCF40E16BE1D3
:1006D00089E60E9448008111D8CF1F5FDBCF0E94BE
:1006E0002D020E94320183B7817F83BF259A9E012C
:1006F000295F3F4FCE0101962E873F87888B998BCC
:10070000A89580910001811108C083B7816083BFE3
:10071000889583B78E7F83BFF3CF10920001D12CD1
:1007200081E08D878D2D0E9448018111AECF4E85CD
:100730005F856BE388E60E94A4008111A6CF4889FB
:10074000598963E488E60E94A40081119ECFCD847C
:10075000CA94E980FA800B811C812D813E814F81F2
:10076000588569857A858B859C850E94D30285E0B2
:10077000D81631F24E855F856BE389E60E94A400AE
:10078000811183CF4889598963E489E60E94A400D6
:1007900081117BCFCD84E980FA800B811C812D8172
:1007A0003E814F81588569857A858B859C850E941D
:1007B000D302D3948D85805FB4CFBB274A3031F408
:1007C000992322F4BDE2909581959F4F0C94E90303
:1007D000BB27FB015527AA27880F991FAA1FA4171B
:1007E00010F0A41B83955051B9F7A05DAA3308F00F
:1007F000A95DA193009779F7B111B1931192CB0143
:100800000C940204DC01FC01672F71917723E1F75E
:10081000329704C07C916D9370836291AE17BF07CD
:08082000C8F30895F894FFCF1E
:00000001FF
